{
  "_format": "hh-sol-artifact-1",
  "contractName": "Transactions",
  "sourceName": "contracts/Transactions.sol",
  "abi": [
    {
      "anonymous": false,
      "inputs": [
        {
          "indexed": false,
          "internalType": "address",
          "name": "from",
          "type": "address"
        },
        {
          "indexed": false,
          "internalType": "address",
          "name": "receiver",
          "type": "address"
        },
        {
          "indexed": false,
          "internalType": "uint256",
          "name": "tokenId",
          "type": "uint256"
        }
      ],
      "name": "NFTTransfer",
      "type": "event"
    },
    {
      "anonymous": false,
      "inputs": [
        {
          "indexed": false,
          "internalType": "address",
          "name": "from",
          "type": "address"
        },
        {
          "indexed": false,
          "internalType": "address",
          "name": "receiver",
          "type": "address"
        },
        {
          "indexed": false,
          "internalType": "uint256",
          "name": "amount",
          "type": "uint256"
        },
        {
          "indexed": false,
          "internalType": "string",
          "name": "message",
          "type": "string"
        },
        {
          "indexed": false,
          "internalType": "uint256",
          "name": "timestamp",
          "type": "uint256"
        },
        {
          "indexed": false,
          "internalType": "string",
          "name": "keyword",
          "type": "string"
        }
      ],
      "name": "Transfer",
      "type": "event"
    },
    {
      "inputs": [
        {
          "internalType": "address payable",
          "name": "receiver",
          "type": "address"
        },
        {
          "internalType": "uint256",
          "name": "tokenId",
          "type": "uint256"
        }
      ],
      "name": "addNFTToBlockchain",
      "outputs": [],
      "stateMutability": "nonpayable",
      "type": "function"
    },
    {
      "inputs": [
        {
          "internalType": "address payable",
          "name": "receiver",
          "type": "address"
        },
        {
          "internalType": "uint256",
          "name": "amount",
          "type": "uint256"
        },
        {
          "internalType": "string",
          "name": "message",
          "type": "string"
        },
        {
          "internalType": "string",
          "name": "keyword",
          "type": "string"
        }
      ],
      "name": "addToBlockchain",
      "outputs": [],
      "stateMutability": "nonpayable",
      "type": "function"
    },
    {
      "inputs": [],
      "name": "getAllTransactions",
      "outputs": [
        {
          "components": [
            {
              "internalType": "address",
              "name": "sender",
              "type": "address"
            },
            {
              "internalType": "address",
              "name": "receiver",
              "type": "address"
            },
            {
              "internalType": "uint256",
              "name": "amount",
              "type": "uint256"
            },
            {
              "internalType": "string",
              "name": "message",
              "type": "string"
            },
            {
              "internalType": "uint256",
              "name": "timestamp",
              "type": "uint256"
            },
            {
              "internalType": "string",
              "name": "keyword",
              "type": "string"
            }
          ],
          "internalType": "struct Transactions.TransferStruct[]",
          "name": "",
          "type": "tuple[]"
        }
      ],
      "stateMutability": "view",
      "type": "function"
    },
    {
      "inputs": [],
      "name": "getNFTTransactionCount",
      "outputs": [
        {
          "internalType": "uint256",
          "name": "",
          "type": "uint256"
        }
      ],
      "stateMutability": "view",
      "type": "function"
    },
    {
      "inputs": [],
      "name": "getTransactionCount",
      "outputs": [
        {
          "internalType": "uint256",
          "name": "",
          "type": "uint256"
        }
      ],
      "stateMutability": "view",
      "type": "function"
    }
  ],
  "bytecode": "0x608060405234801561001057600080fd5b50610e3e806100206000396000f3fe608060405234801561001057600080fd5b50600436106100575760003560e01c806327506f531461005c5780632e7700f01461007a578063a9f6e76914610098578063cc2d7ead146100b4578063e61e3bae146100d0575b600080fd5b6100646100ee565b6040516100719190610aea565b60405180910390f35b610082610331565b60405161008f9190610b0c565b60405180910390f35b6100b260048036038101906100ad919061079f565b61033a565b005b6100ce60048036038101906100c991906107db565b61049e565b005b6100d8610660565b6040516100e59190610b0c565b60405180910390f35b60606002805480602002602001604051908101604052809291908181526020016000905b8282101561032857838290600052602060002090600602016040518060c00160405290816000820160009054906101000a900473ffffffffffffffffffffffffffffffffffffffff1673ffffffffffffffffffffffffffffffffffffffff1673ffffffffffffffffffffffffffffffffffffffff1681526020016001820160009054906101000a900473ffffffffffffffffffffffffffffffffffffffff1673ffffffffffffffffffffffffffffffffffffffff1673ffffffffffffffffffffffffffffffffffffffff168152602001600282015481526020016003820180546101fb90610d0a565b80601f016020809104026020016040519081016040528092919081815260200182805461022790610d0a565b80156102745780601f1061024957610100808354040283529160200191610274565b820191906000526020600020905b81548152906001019060200180831161025757829003601f168201915b505050505081526020016004820154815260200160058201805461029790610d0a565b80601f01602080910402602001604051908101604052809291908181526020018280546102c390610d0a565b80156103105780601f106102e557610100808354040283529160200191610310565b820191906000526020600020905b8154815290600101906020018083116102f357829003601f168201915b50505050508152505081526020019060010190610112565b50505050905090565b60008054905090565b600180600082825461034c9190610bee565b92505081905550600360405180606001604052803373ffffffffffffffffffffffffffffffffffffffff1681526020018473ffffffffffffffffffffffffffffffffffffffff16815260200183815250908060018154018082558091505060019003906000526020600020906003020160009091909190915060008201518160000160006101000a81548173ffffffffffffffffffffffffffffffffffffffff021916908373ffffffffffffffffffffffffffffffffffffffff16021790555060208201518160010160006101000a81548173ffffffffffffffffffffffffffffffffffffffff021916908373ffffffffffffffffffffffffffffffffffffffff1602179055506040820151816002015550507ffd19e66d1a4315847e95661bab80aff36f6801c5b2eeeca82491034bd7660abe33838360405161049293929190610a44565b60405180910390a15050565b60016000808282546104b09190610bee565b9250508190555060026040518060c001604052803373ffffffffffffffffffffffffffffffffffffffff1681526020018673ffffffffffffffffffffffffffffffffffffffff16815260200185815260200184815260200142815260200183815250908060018154018082558091505060019003906000526020600020906006020160009091909190915060008201518160000160006101000a81548173ffffffffffffffffffffffffffffffffffffffff021916908373ffffffffffffffffffffffffffffffffffffffff16021790555060208201518160010160006101000a81548173ffffffffffffffffffffffffffffffffffffffff021916908373ffffffffffffffffffffffffffffffffffffffff1602179055506040820151816002015560608201518160030190805190602001906105ef92919061066a565b506080820151816004015560a082015181600501908051906020019061061692919061066a565b5050507f416cfa4330a4565f45c2fd2dd4826a83a37443aba2ce6f79477c7355afac35fa33858585428660405161065296959493929190610a7b565b60405180910390a150505050565b6000600154905090565b82805461067690610d0a565b90600052602060002090601f01602090048101928261069857600085556106df565b82601f106106b157805160ff19168380011785556106df565b828001600101855582156106df579182015b828111156106de5782518255916020019190600101906106c3565b5b5090506106ec91906106f0565b5090565b5b808211156107095760008160009055506001016106f1565b5090565b600061072061071b84610b58565b610b27565b90508281526020810184848401111561073857600080fd5b610743848285610cc8565b509392505050565b60008135905061075a81610dda565b92915050565b600082601f83011261077157600080fd5b813561078184826020860161070d565b91505092915050565b60008135905061079981610df1565b92915050565b600080604083850312156107b257600080fd5b60006107c08582860161074b565b92505060206107d18582860161078a565b9150509250929050565b600080600080608085870312156107f157600080fd5b60006107ff8782880161074b565b94505060206108108782880161078a565b935050604085013567ffffffffffffffff81111561082d57600080fd5b61083987828801610760565b925050606085013567ffffffffffffffff81111561085657600080fd5b61086287828801610760565b91505092959194509250565b600061087a8383610996565b905092915050565b61088b81610c92565b82525050565b61089a81610c44565b82525050565b6108a981610c44565b82525050565b60006108ba82610b98565b6108c48185610bbb565b9350836020820285016108d685610b88565b8060005b8581101561091257848403895281516108f3858261086e565b94506108fe83610bae565b925060208a019950506001810190506108da565b50829750879550505050505092915050565b600061092f82610ba3565b6109398185610bcc565b9350610949818560208601610cd7565b61095281610dc9565b840191505092915050565b600061096882610ba3565b6109728185610bdd565b9350610982818560208601610cd7565b61098b81610dc9565b840191505092915050565b600060c0830160008301516109ae6000860182610891565b5060208301516109c16020860182610891565b5060408301516109d46040860182610a26565b50606083015184820360608601526109ec8282610924565b9150506080830151610a016080860182610a26565b5060a083015184820360a0860152610a198282610924565b9150508091505092915050565b610a2f81610c88565b82525050565b610a3e81610c88565b82525050565b6000606082019050610a5960008301866108a0565b610a666020830185610882565b610a736040830184610a35565b949350505050565b600060c082019050610a9060008301896108a0565b610a9d6020830188610882565b610aaa6040830187610a35565b8181036060830152610abc818661095d565b9050610acb6080830185610a35565b81810360a0830152610add818461095d565b9050979650505050505050565b60006020820190508181036000830152610b0481846108af565b905092915050565b6000602082019050610b216000830184610a35565b92915050565b6000604051905081810181811067ffffffffffffffff82111715610b4e57610b4d610d9a565b5b8060405250919050565b600067ffffffffffffffff821115610b7357610b72610d9a565b5b601f19601f8301169050602081019050919050565b6000819050602082019050919050565b600081519050919050565b600081519050919050565b6000602082019050919050565b600082825260208201905092915050565b600082825260208201905092915050565b600082825260208201905092915050565b6000610bf982610c88565b9150610c0483610c88565b9250827fffffffffffffffffffffffffffffffffffffffffffffffffffffffffffffffff03821115610c3957610c38610d3c565b5b828201905092915050565b6000610c4f82610c68565b9050919050565b6000610c6182610c68565b9050919050565b600073ffffffffffffffffffffffffffffffffffffffff82169050919050565b6000819050919050565b6000610c9d82610ca4565b9050919050565b6000610caf82610cb6565b9050919050565b6000610cc182610c68565b9050919050565b82818337600083830152505050565b60005b83811015610cf5578082015181840152602081019050610cda565b83811115610d04576000848401525b50505050565b60006002820490506001821680610d2257607f821691505b60208210811415610d3657610d35610d6b565b5b50919050565b7f4e487b7100000000000000000000000000000000000000000000000000000000600052601160045260246000fd5b7f4e487b7100000000000000000000000000000000000000000000000000000000600052602260045260246000fd5b7f4e487b7100000000000000000000000000000000000000000000000000000000600052604160045260246000fd5b6000601f19601f8301169050919050565b610de381610c56565b8114610dee57600080fd5b50565b610dfa81610c88565b8114610e0557600080fd5b5056fea2646970667358221220e493a363cc873f78004bc7eea5746fa904c7f576e8aa5574a8f9f533d5b0f5dc64736f6c63430008000033",
  "linkReferences": {},
  "deployedLinkReferences": {}
}